:020000040800F2
:10000000D8080010E902000835060008D1050008EC
:100010003106000833050008E50A0008000000006A
:10002000000000000000000000000000290200089D
:100030003705000800000000850200086509000877
:100040000303000803030008030300080303000878
:100050000303000803030008030300080303000868
:100060000303000803030008030300080303000858
:100070000303000803030008030300080303000848
:100080000303000803030008030300080303000838
:100090000303000803030008030300080303000828
:1000A0000303000803030008030300080303000818
:1000B0000303000803030008030300080303000808
:1000C00003030008030300080303000803030008F8
:1000D0000303000803030008010A0008390A0008A6
:1000E00003030008030300080303000803030008D8
:1000F00003030008030300080303000803030008C8
:1001000003030008030300080303000803030008B7
:1001100003030008030300080303000803030008A7
:100120000303000803030008030300080303000897
:100130000303000803030008030300080303000887
:100140000303000803030008030300080303000877
:100150000303000803030008030300080303000867
:100160000303000803030008030300080303000857
:100170000303000803030008030300080303000847
:10018000030300080303000800F002F800F03CF845
:100190000AA090E8000C82448344AAF10107DA45E2
:1001A00001D100F031F8AFF2090EBAE80F0013F0F8
:1001B000010F18BFFB1A43F0010318473C2400004D
:1001C0006C240000103A24BF78C878C1FAD85207CE
:1001D00024BF30C830C144BF04680C6070470000C1
:1001E0000023002400250026103A28BF78C1FBD840
:1001F000520728BF30C148BF0B6070471FB502F0DF
:10020000F5F91FBD10B510BD00F059F91146FFF703
:10021000F5FF00F081FC00F077F903B4FFF7F2FF7F
:1002200003BC00F07FF900002C4B19680868B0E8A7
:10023000F04F80F30988BFF36F8F4FF0000080F319
:10024000118870470000000008480068006880F3CB
:1002500008884FF0000080F3148862B661B6BFF3DF
:100260004F8FBFF36F8F00DF00BF00BF08ED00E0CE
:10027000DFF80C00016841F470010160704700BFB5
:1002800088ED00E0EFF30980BFF36F8F134B1A681E
:100290001EF0100F08BF20ED108A20E9F04F10600B
:1002A00009B44FF0500080F31188BFF34F8FBFF3B4
:1002B0006F8F01F063FC4FF0000080F3118809BCE0
:1002C00019680868B0E8F04F1EF0100F08BFB0ECD6
:1002D000108A80F30988BFF36F8F70476C0000109D
:1002E000EFF3058070470000094880470948004740
:1002F000FEE7FEE7FEE7FEE7FEE7FEE7FEE7FEE7D6
:10030000FEE7FEE704480549054A064B7047000032
:100310009909000889010008D8020010D8080010C7
:10032000D8040010D8040010032A40F2308010F0E6
:10033000030C00F0158011F8013BBCF1020F624480
:1003400098BF11F801CB00F8013B38BF11F8013B11
:10035000A2F1040298BF00F801CB38BF00F8013BBE
:1003600011F0030300F07980083AC0F0088051F8DA
:10037000043B083A51F804CBA0E80810F5E7121D39
:100380005CBF51F8043B40F8043BAFF30080D20758
:1003900024BF11F8013B11F801CB48BF11F8012B24
:1003A00024BF00F8013B00F801CB48BF00F8012B47
:1003B000704702F0FF0343EA032242EA024200F0E0
:1003C00002B84FF000020429C0F0128010F0030CB4
:1003D00000F01B80CCF1040CBCF1020F18BF00F838
:1003E000012BA8BF20F8022BA1EB0C0100F00DB8E7
:1003F0005FEAC17C24BF00F8012B00F8012B48BF45
:1004000000F8012B70474FF0000200B513469446E8
:100410009646203922BFA0E80C50A0E80C50B1F15C
:100420002001BFF4F7AF090728BFA0E80C5048BF70
:100430000CC05DF804EB890028BF40F8042B08BF0E
:10044000704748BF20F8022B11F0804F18BF00F80A
:10045000012B704770477047704710B5203AC0F0C5
:100460000B80B1E81850203AA0E81850B1E81850B5
:10047000A0E81850BFF4F5AF5FEA027C24BFB1E8F2
:100480001850A0E8185044BF18C918C0BDE8104063
:100490005FEA827C24BF51F8043B40F8043B08BF6C
:1004A0007047D20728BF31F8023B48BF11F8012B33
:1004B00028BF20F8023B48BF00F8012B7047754663
:1004C00000F02CF8AE4605006946534620F00700C0
:1004D000854618B020B5FFF715FFBDE820404FF066
:1004E00000064FF000074FF000084FF0000B21F01E
:1004F0000701AC46ACE8C009ACE8C009ACE8C009EB
:10050000ACE8C0098D46704710B50446AFF30080D3
:100510002046BDE81040FFF780BE0000004870474D
:100520007802001001491820ABBEFEE72600020049
:10053000704700BFFEE77047F0B50A460021002370
:10054000002400BF3DE0012505FA01F3156805EA26
:1005500003049C4234D105684F000326BE40B543D6
:10056000056015794E00B54006683543056015797C
:10057000012D02D01579022D16D185684F00032672
:10058000BE40B543856055794E00B5408668354319
:100590008560456801268E40B5434560456896797B
:1005A0008E40B6B235434560C5684F000326BE4055
:1005B000B543C560D5794E00B540C6683543C560C2
:1005C000491C1029BFD3F0BD418370470183704798
:1005D00000BFFEE710B504210148FFF7F7FF10BD8B
:1005E000000C024010B504210148FFF7EDFF10BDDB
:1005F000000C02401CB50121082000F01DF8042069
:10060000009001208DF8040000208DF806000120E4
:100610008DF8070002208DF8050069460348FFF7B2
:100620008BFF04210148FFF7D1FF1CBD000C0240E5
:1006300000BFFEE77047000029B1064A1268024376
:10064000044B1A6004E0034A12688243014B1A60AB
:100650007047000030380240C0EBC001024A02EB94
:10066000810181ED040A7047C00000102DE9F041BE
:100670002DED048B04466748007807280FD2DFE889
:1006800000F0040F1E2D42596500AA2C07D101204D
:100690006049087060480470012060490870B4E047
:1006A000552C08D102205B4908705B484470022039
:1006B0005A49087002E0002056490870A5E0012C54
:1006C00008D10320534908705348847003205349CC
:1006D000087002E000204F49087096E0102C0ED1FF
:1006E00004204C4908704C48C47004204B490870E1
:1006F00010204B49087000204A49087002E0002091
:100700004449087081E0454801780078401C434A1C
:1007100010704148445443480078401C41490870D7
:10072000084600783E490978884202DB05203949AD
:1007300008706AE0394801780078401C374A107028
:10074000354844540620334908705EE03248334946
:1007500009784454142100F073F806462E48007DB1
:100760002D49497D40EA0127BE424AD12A4D2D1D1F
:1007700095ED000ADFED2C0A20EE200A2B4880EDD3
:10078000000A95ED010ADFED280A20EE200A28482C
:1007900080ED000A95ED020ADFED230A20EE200A23
:1007A000244880ED000A95ED030ADFED1F0A20EED4
:1007B000200A214880ED000A1C4890ED008A1C4860
:1007C000D0ED008A1B4890ED009A1B48D0ED009AAE
:1007D000B0EE480A0020FFF73FFFB0EE680A0120A4
:1007E000FFF73AFFB0EE490A0220FFF735FFB0EEFF
:1007F000690A0320FFF730FF00BF00200F4908708F
:1008000000BF00200349087000BF00BFBDEC048B8F
:10081000BDE8F0813D0000103001001040000010E4
:100820003F0000103E0000100AD7233D04000010D6
:10083000080000100C000010100000100000001054
:1008400030B502460B464FF6FF70002111E0545CB4
:10085000604000240AE000F0010525B14AF20105DC
:1008600085EA600500E045102846641C082CF2DB90
:10087000491C9942EBD330BD0CB50020019000908B
:100880003448006840F480303249086000BF314885
:10089000006800F4003000900198401C019000981E
:1008A00018B90198B0F5A04FF1D12A48006800F4BA
:1008B000003010B10120009001E00020009000986D
:1008C000012846D123484030006840F0805021493B
:1008D000403108602048006840F440401E490860EC
:1008E0001C48083000681B49083108600846006849
:1008F00040F4004008600846006840F4A0500860DA
:100900001648091F0860081F006840F08070091F22
:10091000086000BF0F48006800F000700028F9D0A0
:1009200040F205700E4908600A480830006820F05F
:1009300003000849083108600846006840F00200DA
:10094000086000BF03480830006800F00C00082869
:10095000F8D10CBD00380240007000400854400738
:10096000003C024010B500BF502080F31188BFF357
:100970004F8FBFF36F8F00BF01F0E2FB18B14FF054
:1009800080500449086000BF002080F3118800BF38
:1009900010BD000004ED00E010B51548006840F4FB
:1009A0007000134908601348006840F001001149C5
:1009B000086000200F49083108600E4800680E49A1
:1009C00008400C4908600D48091D0860081F0068B0
:1009D00020F48020091F0860002006490C310860BF
:1009E000FFF74AFF4FF0006001498039086010BDF1
:1009F00088ED00E000380240FFFFF6FE10300024D2
:100A000010B540F22551094800F03DF801280CD1FD
:100A1000064800F062F80649087001200549087090
:100A200040F22551014800F01FF810BD004400407D
:100A3000380000103900001010B540F22551094867
:100A400000F021F801280CD1064800F046F8C4B2A5
:100A50002046FFF70BFE40F22551024800F004F853
:100A600000BF10BD0048004010B50022002340F632
:100A70006A14A14200D100BF0A1201249440A3B21B
:100A8000DC43048010BD70B502460024002300251D
:100A9000002040F66A16B14200D100BFC1F34215F2
:100AA00001F01F03012606FA03F3012D02D19689F6
:100AB000334006E0022D02D1168A334001E0968AC7
:100AC00033400C12012606FA04F41688344013B1A0
:100AD0000CB1012000E0002070BD01468888C0F301
:100AE0000800704700BFFEE71CB50648012100233F
:100AF0008022CDE9001004A1064801F0D7FA00F0E9
:100B0000E7FF1CBD2800001073746172745F74618C
:100B1000736B000081150008FFF76CFDFFF7E4FF21
:100B200000BFFEE72DE9F04105460E46264807685E
:100B300026480068001D00F07DFD50B9234800687C
:100B400090F82C10012088402149096881432048F1
:100B50000160681CD8B9D6B11E4948681B490968AC
:100B600088601A4982680968CA6018490968091DBD
:100B70008268516015490968091D8160154A134949
:100B800009684A6111460968491C11601AE07C191C
:100B90000E4800684460BC4207D20C480168091D39
:100BA0000D48006800F06AFD0CE008480168091D66
:100BB0000A48006800F062FD09480068844201D2DA
:100BC00007480460BDE8F081800000106C00001050
:100BD000840000103C02001074000010700000102F
:100BE0009C00001010B5044600F06EFD314800680E
:100BF000401C304908603048006840B92E48046005
:100C00000846006801280DD100F0B2F90AE02B482F
:100C1000006838B928480068C06AE16A884201D88B
:100C20002548046026480068401C2549086008469D
:100C30000068206494F82C1001208840214909683C
:100C4000084320490860E16A01EB81011E4A02EB7A
:100C500081014868A0608268E260211D826851605D
:100C60008160E16A01EB8101174A02EB8102626156
:100C7000E16A01EB8101144A52F82110491CE26A31
:100C800002EB8202104B43F8221000F047FD0B48A4
:100C9000006868B108480068C06AE16A884207D203
:100CA0004FF0805009490860BFF34F8FBFF36F8F3B
:100CB00010BD00007C0000106C00001088000010C7
:100CC00098000010840000108801001004ED00E07E
:100CD00010B500F0F9FC10480068D0B90F4800F0DA
:100CE000BDFC0F4800F0BAFC0C480E4908600C48E7
:100CF0000D49086000220C210A2001F039F806494C
:100D000008600846006820B108A10348006800F0A8
:100D10007DFD00F003FD10BDB40000105002001076
:100D200064020010AC000010B0000010546D72514D
:100D30000000000010B516E000F0C6FC0C48C068CA
:100D4000C468201D00F076FC0A480068401E09496E
:100D5000086009480068401E0749086000F0DEFC92
:100D6000204600F020F8044800680028E4D110BDB7
:100D7000280200107C0000107800001070B50446B6
:100D80000D46206C70B1216CE0680144E160D4E94B
:100D90000210884201D32168E1602846226CE16894
:100DA000FFF7C2FA70BD10B50446206B00F0D4FC0A
:100DB000204600F0D1FC10BD0146084A12681268B6
:100DC0000AB9012200E000220A600A6822B9034A37
:100DD0001268D268106800E000207047AC00001074
:100DE00030B54FF49633154800F007042CB1C01D00
:100DF00020F00700114C041B1B1B0246104C226004
:100E000000240F4D6C60D018083820F007000D4CFE
:100E1000206000240B4D2D686C600A4D2D682C60FD
:100E20001146441A4C60074C24680C60064D4C680F
:100E30002C60064D4C682C6030BD00000000002086
:100E4000440000104C00001054000010500000102E
:100E500000BFFFF76FFF064800680128F9D94FF07F
:100E6000805004490860BFF34F8FBFF36F8FF0E7E6
:100E70008801001004ED00E02DE9F04106460D4622
:100E800017469846069C0DB9246000E02760E6638B
:100E900025640121204600F09FFF84F84C80BDE8C6
:100EA000F0812DE9F05F82460F4690469B460A9EF0
:100EB0000C9C4FEA8801A522206BFFF77AFAA8F173
:100EC0000100216B01EB800929F0070909F00700F7
:100ED00008B9012000E0002050B900BF502080F385
:100EE0001188BFF34F8FBFF36F8F00BF00BFFEE7C6
:100EF0007FB1002507E0795D04F134004155785D4C
:100F000000B902E06D1C0A2DF5D300BF00213D2081
:100F10000155052E01D2012000E0002050B900BF8C
:100F2000502080F31188BFF34F8FBFF36F8F00BF46
:100F300000BFFEE7052E00D30426E662A664201D4E
:100F400000F099FB04F1180000F095FB2461C6F154
:100F50000500A06164625A465146484600F0FAFA1C
:100F600020600B9808B10B980460BDE8F09F00006A
:100F700010B5002407E004EB84010F4A02EB810066
:100F800000F06CFB641C052CF5D30C4800F066FBEC
:100F90000B4800F063FB0B4800F060FB0A4800F0D0
:100FA0005DFB0A4800F05AFB044809490860044800
:100FB0000849086010BD000088010010EC01001015
:100FC0000002001014020010280200103C02001061
:100FD000700000107400001010B50146164800E0C3
:100FE000006803688B42FBD30246436813448B427C
:100FF00004D143684C682344436001460A464B6869
:1010000013440468A34211D10C4C03682468A34222
:1010100008D04B680468646823444B6003681B680D
:101020000B6005E0054B1B680B6001E003680B607B
:10103000884200D0016010BD440000104C00001038
:101040002DE9F04104460D4616461F464FF00008B4
:1010500065602461B5420CD8F01BA169884202D3B7
:101060004FF0010811E0211D0948006800F006FB5F
:101070000BE0BE4204D2BD4202D34FF0010804E0AF
:10108000211D0448006800F0F9FA4046BDE8F081EF
:10109000B0000010AC00001070B5054600F014FB65
:1010A000A86B08B9012400E0002400F037FB2046BB
:1010B00070BD000070B505460E460E480068C06859
:1010C000C468201D00F0B6FA94F8280000F004006F
:1010D00028B132462946204600F0D6F805E094F8BB
:1010E000280000F0FE0084F828002046216A884786
:1010F00070BD0000AC0000107FB57FE001980028B3
:101100007CDB039C606908B9012000E0002010B975
:10111000201D00F08FFA684600F0E2F805460198BD
:101120000A2869D2DFE800F06805072E365806085D
:101130002F3700BF00BF00BF94F8280040F0010027
:1011400084F828000298A269811803462A4620469E
:10115000FFF776FFA8B194F8280000F0040038B13A
:101160000298A26981182A46204600F08DF805E011
:1011700094F8280000F0FE0084F828002046216A38
:1011800088473AE000BF94F8280000F0FE0084F899
:10119000280032E000BF94F8280040F0010084F8F5
:1011A00028000298A061A06908B1012000E0002099
:1011B00050B900BF502080F31188BFF34F8FBFF3A9
:1011C0006F8F00BF00BFFEE7A06941192B462A467A
:1011D0002046FFF735FF10E094F8280000F00200E9
:1011E00018B9204600F0B8FA05E094F8280000F09D
:1011F000FE0084F8280000E000BF00BF002201A923
:101200000348006800F056FE00287FF477AF7FBDEA
:10121000B4000010F8B505460C4600F0A7FC68467F
:1012200000F05EF80646009820BB44B9B54206D8E7
:1012300001F0F4F831462846FFF73CFF1CE03CB1D2
:101240000E480068006808B9012000E0002004464C
:10125000A91B22460A48006800F008FB01F0DEF8EE
:1012600050B94FF0805007490860BFF34F8FBFF36C
:101270006F8F01E001F0D2F8F8BD0000B00000105F
:10128000B400001004ED00E070B504460D461646AB
:1012900004E0A06905442046216A8847A0694119F5
:1012A0002B4632462046FFF7CBFE0028F1D170BD19
:1012B00009480068006808B9012000E0002020B15A
:1012C0004FF0FF300549086005E003480068C0683A
:1012D0000068024908607047700000109C00001010
:1012E00070B5044600F026FF0546074800688542B1
:1012F00004D200F00BF80120206001E00020206003
:1013000001480560284670BDBC00001070B508E0BB
:101310000D480068C06804684FF0FF312046FFF7B1
:10132000C9FE09480068006808B9012000E00020F3
:101330000028EDD0044805680448006802490860A8
:101340000248056070BD0000AC000010B000001045
:101350000E480068401C08B9012000E0002050B988
:1013600000BF502080F31188BFF34F8FBFF36F8F02
:1013700000BF00BFFEE700BF502080F31188BFF31D
:101380004F8FBFF36F8F00BF00BFFEE760000010FC
:1013900008B500BF6846FFF70FFD044620460099D8
:1013A000FFF738FFFFF7A8FEF4E770B5044600F03A
:1013B0008BF994F9455010E0606A08B9012000E00B
:1013C000002038B904F1240000F098FF18B100F0B3
:1013D0002BFB00E003E0681E45B2002DECDC00BFF3
:1013E000FF2084F8450000F099F900F06DF994F9B8
:1013F000445010E0206908B9012000E0002048B9FD
:1014000004F1100000F07AFF08B100F00DFB681E37
:1014100045B200E001E0002DECDC00BFFF2084F8C5
:10142000440000F07BF970BD2DE9F04705464FF010
:10143000000900F09BFB4248006808B9FFF7D0FCA8
:1014400075B105F00700C0F11008C8F1FF30A842DF
:1014500001D2012000E0002008B9454400E0002549
:10146000012000EBE570002853D0002D51D0354805
:10147000006885424DD8344E3046046801E0264667
:1014800024686068A84202D220680028F7D12C485E
:10149000006884423DD0306800F10809206830605F
:1014A0006068401B102819D9671907F0070008B9B0
:1014B000012000E0002050B900BF502080F31188C7
:1014C000BFF34F8FBFF36F8F00BF00BFFEE76068B1
:1014D000401B786065603846FFF77EFD19496068FB
:1014E0000968081A1749086008460068174909681A
:1014F000884203D21348006814490860606840F0CD
:10150000004060600020206011480068401C1049C5
:10151000086000F083FF09F0070008B9012000E02F
:10152000002050B900BF502080F31188BFF34F8FC7
:10153000BFF36F8F00BF00BFFEE74846BDE8F087EE
:101540004C00001050000010440000105400001027
:1015500058000010001F4FF080730360001F21F03F
:1015600001030360001F054B036014380260001F75
:101570006FF0020303602038704700005113000829
:101580001CB5044600F0A0F8114802210023802277
:10159000CDE900100FA1114800F088FD104803218B
:1015A00000238022CDE900100EA1104800F07EFD3E
:1015B0000F48042100238022CDE900100DA10F481F
:1015C00000F074FD00F0AAF8002000F0A3F91CBDA3
:1015D0002C0000107461736B3100000001160008CC
:1015E000300000107461736B320000000D160008AB
:1015F000340000107461736B33000000191600088A
:1016000003E04FF4FA7000F057F9FAE703E04FF403
:10161000FA7000F051F9FAE70BE0FEF7E3FF40F251
:10162000DC5000F049F9FEF7D5FF4FF4FA7000F0F6
:1016300043F9F2E701460A69D1E901309860D1E93E
:10164000010358605068884201D1886850600020CA
:1016500008611068401E10601068704700F10801B2
:1016600041604FF0FF31816000F10801C16001610C
:1016700000210160704700210161704710B50246EA
:101680000B685C1C0CB9106907E002F1080000E06F
:101690004068446824689C42FAD944684C604C68AD
:1016A000A160886041600A611468641C146010BD08
:1016B00042684A6093688B609368596091600861E2
:1016C00003685B1C0360704700BF502080F31188E3
:1016D000BFF34F8FBFF36F8F00BF0E480068401CF1
:1016E0000C49086008460068012812D10A480068C1
:1016F000C0B208B9012000E0002050B900BF50205E
:1017000080F31188BFF34F8FBFF36F8F00BF00BF0F
:10171000FEE770476000001004ED00E00D4800682F
:1017200050B900BF502080F31188BFF34F8FBFF333
:101730006F8F00BF00BFFEE706480068401E0549E6
:1017400008600846006820B9002080F3118800BFB7
:1017500000BF70476000001070B506463546002E89
:101760003BD0083D2C466068C00F50B900BF5020E8
:1017700080F31188BFF34F8FBFF36F8F00BF00BF9F
:10178000FEE7206808B9012000E0002050B900BF42
:10179000502080F31188BFF34F8FBFF36F8F00BFCE
:1017A00000BFFEE76068C00FB8B12068A8B96068E4
:1017B00020F00040606000F0D9F9084960680968CD
:1017C0000844064908602046FFF706FC0448006804
:1017D000401C0349086000F021FE70BD500000105D
:1017E0005C00001000204FF0E0210861886106488D
:1017F00000684FF47A71B0FBF1F0401E4FF0E02129
:1018000048610720086170471400001030B5024697
:101810000B46002152B900BF502484F31188BFF356
:101820004F8FBFF36F8F00BF00BFFEE7BBB100203B
:1018300012E00D4C04EBC0046468944203D10A4CDE
:1018400004EBC0010AE031B9074C54F8304014B938
:10185000054C04EBC001401C0828EAD300BF09B1C5
:101860000B604A6030BD0000480100102DE9F041D6
:1018700005460E4617462C46FFF726FF94F944000E
:10188000401C10B9002084F8440094F94500401C25
:1018900010B9002084F84500FFF740FFA06B28B97D
:1018A0003A46314604F1240000F0E0F82046FFF704
:1018B0007CFDBDE8F081000070B504460025D4B180
:1018C0001248006808B9012000E0002050B900BFAC
:1018D000502080F31188BFF34F8FBFF36F8F00BF8D
:1018E00000BFFEE700F042F900212046FFF71AF999
:1018F00000F094FD05463DB94FF080500449086062
:10190000BFF34F8FBFF36F8F70BD0000A8000010B2
:1019100004ED00E070B50546FFF7D6FE15B9324874
:10192000006800E028460446201DFFF783FE78B9D2
:10193000E06A00EB80002D4951F8200040B994F88E
:101940002C10012088402A490968814328480160F9
:10195000A06A18B104F11800FFF76CFE2548006872
:10196000401C2449086020480068844209D1211D98
:101970002148FFF79DFE21480068401C1F49086070
:1019800006E01F480068401E1D490860FFF790FCF4
:10199000FFF7C4FE14480068844202D02046FFF7D7
:1019A00002FA18480068E8B10F480068844219D16B
:1019B0001548006808B9012000E0002050B900BFB8
:1019C000502080F31188BFF34F8FBFF36F8F00BF9C
:1019D00000BFFEE74FF080500C490860BFF34F8F07
:1019E000BFF36F8F70BD00006C0000108801001005
:1019F00084000010980000102802001078000010E9
:101A00007C00001088000010A800001004ED00E029
:101A10000349096801600349096841607047000093
:101A200094000010800000100120014908607047F8
:101A30009000001070B504460D4654B900BF502008
:101A400080F31188BFF34F8FBFF36F8F00BF00BFCC
:101A5000FEE70548016818312046FFF70FFE012117
:101A60002846FFF75FF870BD6C00001070B50446A3
:101A70000E46154654B900BF502080F31188BFF3BD
:101A80004F8FBFF36F8F00BF00BFFEE760680F4945
:101A90000968C8610D49826809680A620B490968CA
:101AA0001831826851600949096818318160074915
:101AB00009688C622168491C21600DB14FF0FF3626
:101AC00029463046FFF72EF870BD00006C0000106C
:101AD0001CB51E4800210B468222CDE900101CA136
:101AE0001D4800F0E3FA0446012C02D100F052FD3B
:101AF0000446012C15D100BF502080F31188BFF39C
:101B00004F8FBFF36F8F00BF4FF0FF301349086056
:101B100001201349086000201249086000F074F8A1
:101B200010E0601C08B1012000E0002050B900BFA7
:101B3000502080F31188BFF34F8FBFF36F8F00BF2A
:101B400000BFFEE7084800681CBD0000A0000010B0
:101B500049444C4500000000510E00089C00001054
:101B60008800001080000010A400001002480068E7
:101B7000401C014908607047A80000101D4800681B
:101B800018B101201C49086032E000201A490860A1
:101B90001A480068B0FA80F0C0F11F0101EB810023
:101BA000174A52F8200008B1012000E0002050B987
:101BB00000BF502080F31188BFF34F8FBFF36F8FAA
:101BC00000BF00BFFEE701EB81020D4B03EB82007B
:101BD00042685268426000F108024368934202D1B1
:101BE0004268526842604268D268064B1A6000BF81
:101BF00070470000A8000010900000108400001042
:101C0000880100106C0000101CB552480068524951
:101C1000884201D0012000E0002050B900BF5020D0
:101C200080F31188BFF34F8FBFF36F8F00BF00BFEA
:101C3000FEE7484800684849491E884201D0012013
:101C400000E0002050B900BF502080F31188BFF39E
:101C50004F8FBFF36F8F00BF00BFFEE73F490846BD
:101C600000780190FF200A46107008460078009026
:101C70009DF8000000F0F0009DF80020904201D196
:101C8000012000E0002050B900BF502080F31188EF
:101C9000BFF34F8FBFF36F8F00BF00BFFEE79DF80C
:101CA000000000F050002E4A107007202D4A1060EE
:101CB00009E02C480068401E2A4A10609DF8000088
:101CC0004006000E00909DF8000000F08000802883
:101CD000EFD024480068C0F10700042801D101209A
:101CE00000E0002050B900BF502080F31188BFF3FE
:101CF0004F8FBFF36F8F00BF00BFFEE7194800682A
:101D00000002184A10601046008800F4E06010607D
:101D1000124A019810700F482030006840F470009B
:101D20000C49203108600846006840F070400860A7
:101D3000FFF758FD00200C490860FEF799FA0B48A0
:101D4000006840F0404009490860FEF77DFA002035
:101D50001CBD000000ED00E071C20F4100E400E096
:101D600064000010680000106000001034EF00E014
:101D70002DE9F84305460E4617460024E5B1601EDE
:101D8000B0FBF5F0B04217D305FB06F010F1510F90
:101D900012D805FB06F808F15000FFF745FB044692
:101DA000B4B1A14609F150093B464A46314628469E
:101DB0000094FFF761F80BE054B900BF502080F3A6
:101DC0001188BFF34F8FBFF36F8F00BF00BFFEE7D7
:101DD0002046BDE8F88300002DE9F04105460E4697
:101DE00001272C4654B900BF502080F31188BFF35F
:101DF0004F8FBFF36F8F00BF00BFFEE7002C42D0B4
:101E0000E06B00283FD04FF0FF31E06BB1FBF0F00A
:101E1000216C884237D3FFF757FCD4E90F122068B2
:101E200001FB0200A0600020A06320686060E06BFE
:101E3000401E226C216800FB0211E160FF2084F843
:101E4000440084F845009EB9206908B9012000E0EB
:101E50000020A8B904F1100000F050FA80B14FF052
:101E6000805013490860BFF34F8FBFF36F8F07E0B7
:101E700004F11000FFF7F2FB04F12400FFF7EEFB82
:101E8000FFF74CFC00E000270FB1012000E000202C
:101E900050B900BF502080F31188BFF34F8FBFF3BC
:101EA0006F8F00BF00BFFEE73846BDE8F08100003D
:101EB00004ED00E02DE9F74183B005460E464FF0F2
:101EC00000082C4654B900BF502080F31188BFF39E
:101ED0004F8FBFF36F8F00BF00BFFEE70EB9206CBE
:101EE00008B9012000E0002050B900BF502080F365
:101EF0001188BFF34F8FBFF36F8F00BF00BFFEE7A6
:101F000000F008F908B9059808B9012000E00020A0
:101F100050B900BF502080F31188BFF34F8FBFF33B
:101F20006F8F00BF00BFFEE700BFFFF7CDFBA76BC1
:101F3000F7B131462046FEF721FF781EA0632069E5
:101F400008B9012000E0002060B904F1100000F0A1
:101F5000D5F938B14FF080502F490860BFF34F8F4B
:101F6000BFF36F8FFFF7DAFB012006B0BDE8F08109
:101F7000059818B9FFF7D2FB0020F6E7B8F1000F7B
:101F800004D101A8FFF744FD4FF00108FFF7C6FB9D
:101F9000FFF7ECFDFFF798FB94F94400401C10B9E3
:101FA000002084F8440094F94500401C10B900203A
:101FB00084F84500FFF7B2FB05A901A800F02EF850
:101FC000F0B92046FFF768F8A0B104F124000599A4
:101FD000FFF730FD2046FFF7E8F900F01FFA002870
:101FE000A3D14FF080500C490860BFF34F8FBFF36F
:101FF0006F8F9AE72046FFF7D8F900F00FFA94E7C1
:102000002046FFF7D2F900F009FA2046FFF744F81E
:1020100000288AD00020A8E704ED00E070B505464E
:102020000C4655B900BF502080F31188BFF34F8F85
:10203000BFF36F8F00BF00BFFEE754B900BF502051
:1020400080F31188BFF34F8FBFF36F8F00BF00BFC6
:10205000FEE7FFF739FB134802686868131A206827
:10206000401C08B9002619E00F4928680968884211
:1020700006D06868904203D80126002020600DE059
:102080002068984207D92068C01A20602846FFF7C8
:10209000BFFC002602E0002020600126FFF73EFB87
:1020A000304670BD80000010940000102DE9FF4FF5
:1020B00085B0804689461746DDE912ABB800FFF7C8
:1020C000B3F9064676B15820FFF7AEF904462CB1B5
:1020D00058212046FEF797F9266304E03046FFF7C3
:1020E0003BFB00E000247CB10020CDE900ABCDE952
:1020F00002403A4649464046089BFEF7D2FE20463B
:10210000FEF770FD012501E04FF0FF35284609B0CC
:10211000BDE8F08F0549096809B9012005E00449C7
:10212000096809B9022000E000207047880000100B
:10213000A8000010014908687047000080000010E6
:102140002DE9F0414FF000086148006800287DD17A
:1021500060480068451C5F48056015BB5E48006824
:10216000006808B9012000E0002050B900BF5020ED
:1021700080F31188BFF34F8FBFF36F8F00BF00BF95
:10218000FEE75548076855480068534908605348BA
:10219000076053480068401C51490860FFF788F801
:1021A00000BF50480068854277D300BF4A480068A6
:1021B000006808B9012000E0002020B14FF0FF3096
:1021C0004849086068E044480068C068C4686668B8
:1021D000B54202D2434806605EE06069D4E902126B
:1021E0008A60D4E902214A60211D42688A4201D1F5
:1021F000E1684160002262610168491E0160A06AD5
:1022000098B1A06AD4E907128A60D4E907214A602C
:1022100004F1180142688A4201D1216A416000221A
:10222000A2620168491E016000BF94F82C100120D1
:1022300088402D49096808432B490860E16A01EB91
:1022400081012A4A02EB8101486800E037E0A06082
:102250008268E260211D826851608160E16A01EB61
:102260008101224A02EB81026261E16A01EB810194
:102270001E4A52F82110491CE26A02EB82021B4BF3
:1022800043F822101A49E06A0968C96A88428DD960
:102290004FF001088AE700E000BF15480068C06AF7
:1022A00000EB8000114951F82000012801D94FF0BE
:1022B00001081048006808B14FF0010804E00E481A
:1022C0000068401C0C4908604046BDE8F0810000F1
:1022D000A8000010800000107000001074000010B2
:1022E000940000109C000010840000108801001071
:1022F0006C000010900000108C00001070B50346B8
:10230000D868C16851B900BF502080F31188BFF36D
:102310004F8FBFF36F8F00BF00BFFEE7886AD1E920
:102320000745A560D1E90754656001F118044568C7
:10233000A54201D10C6A446000258D620468641EC8
:1023400004603048006800283DD14869D1E9024561
:10235000A560D1E9025465600C1D4568A54201D114
:10236000CC68446000254D610468641E046091F8E7
:102370002C400120A040244C24682043224C2060A3
:10238000CC6A04EB8404214D05EB8404606888600A
:102390008568CD600C1D85686C608460CC6A04EB38
:1023A00084041A4D05EB84054D61CC6A04EB84046A
:1023B000164D55F82440641CCD6A05EB8505134E77
:1023C00046F8254010E0124C6068C86185680D62CF
:1023D00001F1180485686C6084600D4D8D622C4697
:1023E0002468641C2C6000BF0A4CC86A2468E46A34
:1023F000A04204D901220120074C206000E0002205
:10240000104670BDA8000010840000108801001064
:10241000140200106C0000109000001070B5002431
:1024200000265348006850B900BF502080F311883F
:10243000BFF34F8FBFF36F8F00BF00BFFEE7FFF703
:1024400043F94B480068401E494908600846006847
:1024500000287DD147480068002879D05BE04648D5
:10246000C068C468A06AD4E907128A60D4E9072169
:102470004A6004F1180142688A4201D1216A416030
:102480000022A2620168491E01606069D4E902125B
:102490008A60D4E902214A60211D42688A4201D142
:1024A000E1684160002262610168491E016094F8A0
:1024B0002C10012088403149096808432F490860E1
:1024C000E16A01EB81012E4A02EB81014868A060BC
:1024D0008268E260211D826851608160E16A01EBDF
:1024E0008101274A02EB81026261E16A01EB81010D
:1024F000234A52F82110491CE26A02EB8202204B67
:1025000043F822101F49E06A0968C96A884202D369
:1025100001201D4908601848006808B9012000E042
:10252000002000289BD00CB1FEF7C2FE17480568BA
:1025300065B100BFFFF704FE10B101201249086029
:102540006D1E002DF6D10020104908600E4800E0F5
:1025500009E0006838B1012630070D490860BFF373
:102560004F8FBFF36F8FFFF7D9F8304670BD000073
:10257000A80000107C00001014020010840000105D
:10258000880100106C000010900000108C000010FA
:1025900004ED00E01CB50024FEF79AFB0E4800682D
:1025A00058B10E48022100234FF48272CDE9001089
:1025B0000BA10D48FFF77AFD044654B900BF502027
:1025C00080F31188BFF34F8FBFF36F8F00BF00BF41
:1025D000FEE720461CBD0000B4000010B80000104B
:1025E000546D722053766300911300084FF04070D1
:1025F000E1EE100A704700002826000800000010D5
:10260000C0000000C40100082826000800000020C7
:10261000002C0100E0010008E8260008C0000010BE
:1026200018080000E001000800000000CDCC4C3E7E
:10263000CDCC4C3ECDCC4C3ECDCC4C3E007A030AAA
:102640000000000000000000010203040607080962
:10265000000000000000000000000000000000007A
:10266000000000000000000000000000000000006A
:10267000000000000000000000000000000000005A
:102680000000000000000000AAAAAAAA00000000A2
:10269000000000000000000000000000000000003A
:1026A000000000000000000000000000000000002A
:1026B000000000000000000000000000000000001A
:1026C0000000000000000000000000000400000006
:1026D00000000000000000000000000000000000FA
:0826E0000000000000000000F2
:040000050800018965
:00000001FF
